:100000000EC015C014C013C012C011C010C00FC064
:100010000EC00DC00CC00BC00AC009C008C011241E
:100020001FBECFE5D2E0DEBFCDBF28D032C0E8CFC3
:10003000CF93DF9300D000D0CDB7DEB769837A834A
:100040008B839C8389819A81AB81BC8118161906A8
:100050001A061B0664F489819A81AB81BC810197E1
:10006000A109B10989839A83AB83BC83EBCF0F903D
:100070000F900F900F90DF91CF910895B99AC2E041
:1000800088B38C2788BB60E177E280E090E0D0DF26
:06009000F7CFF894FFCF4A
:00000001FF
