:100000000EC01DC01CC01BC01AC07CC018C017C0C9
:1000100016C015C014C013C012C011C010C01124E6
:100020001FBECFE5D2E0DEBFCDBF20E0A0E6B0E04E
:1000300001C01D92A936B207E1F7AED0C8C0E0CF2B
:100040003FB7F8948091650090916600A091670099
:10005000B091680022B708B601FE05C02F3F19F025
:100060000196A11DB11D3FBFBA2FA92F982F882738
:10007000BC01CD01620F711D811D911D43E0660F12
:10008000771F881F991F4A95D1F70895CF92DF9265
:10009000EF92FF92CF93DF93D3DFEB0188EEC82E70
:1000A00083E0D82EE12CF12CCBDF6C1B7D0B683E5E
:1000B0007340A0F0C114D104E104F10439F4DF91DC
:1000C000CF91FF90EF90DF90CF90089581E0C81A14
:1000D000D108E108F108C851DC4FE6CFC114D104C2
:1000E000E104F10409F7EBCF90B79F7D90BF811138
:1000F00005C08FB7F894C1988FBF08958FB7F89453
:10010000C19AFACF1F920F920FB60F9211242F931C
:100110003F938F939F93AF93BF9380916100909192
:100120006200A0916300B09164003091600026E00D
:10013000230F2D3768F129E8230F0396A11DB11D68
:10014000209360008093610090936200A09363000D
:10015000B09364008091650090916600A091670063
:10016000B09168000196A11DB11D80936500909328
:100170006600A0936700B0936800BF91AF919F9114
:100180008F913F912F910F900FBE0F901F90189558
:100190000296A11DB11DD4CF83E08ABD82E083BF4A
:1001A000789489B7826089BF80E48CBD8FEF8DBD64
:1001B00084EC80BF83E886B98FB7F894B99A8FBF73
:1001C00081E092DF63DF80E08FDF60DFF9CFF894BA
:0201D000FFCF5F
:00000001FF
