:100000000FC033C032C031C030C082C12EC02DC03D
:100010002CC02BC02AC029C028C027C026C05D0222
:1000200011241FBECFE5D2E0DEBFCDBF20E0A6E7A2
:10003000B0E001C01D92A03AB207E1F710E0A0E6DF
:10004000B0E0ECEEF4E002C005900D92A637B107E7
:10005000D9F710E0C0E1D0E003C02197FE013ED205
:10006000CF30D107D1F79ED13FC2CACF3FB7F89466
:1000700080918F0090919000A0919100B09192009A
:1000800022B708B601FE05C02F3F19F00196A11D49
:10009000B11D3FBFBA2FA92F982F8827BC01CD01D2
:1000A000620F711D811D911D43E0660F771F881F30
:1000B000991F4A95D1F70895CF92DF92EF92FF9260
:1000C000CF93DF936B017C01D1DFEB01CFDF6C1BA2
:1000D0007D0B683E7340A0F0C114D104E104F1042B
:1000E00039F4DF91CF91FF90EF90DF90CF9008959A
:1000F00081E0C81AD108E108F108C851DC4FE6CF09
:10010000C114D104E104F10409F7EBCFCF92DF92DF
:10011000EF92FF920F931F93CF93DF936C01EB014C
:100120007B01E40EF51E10E000E0CE15DF0561F066
:100130006991D601ED91FC910190F081E02DC6010D
:100140000995080F191FF1CFC801DF91CF911F91B9
:100150000F91FF90EF90DF90CF900895C29AC29BCD
:10016000FECF00C000C00000C09800C000C0C29810
:10017000C09A779905C083E08093890080E0089554
:1001800081E008958EB98BE200C000C000008DB9F7
:10019000B29BFECF00C000C08DB9769BF5CF00C0EA
:1001A00000C000008FB19FEF9FB9B89A0895DF9209
:1001B000EF92FF920F931F93CF93DF93FC019481F3
:1001C000990F909376008485682B81E08093880056
:1001D0006093770083E080938900C0DF882301F17A
:1001E00012E0C6E7D0E00FEFDD24D3947E018FEF5D
:1001F000E81AF80A80918900837009F449C0C2980E
:1002000088818FB980EFBEDFB8988EEFBBDF909109
:10021000890080FF16C081E090FF82E08093890012
:1002200010928800DF91CF911F910F91FF90EF9076
:10023000DF90089586E7E82E80E0F82E11E0E701D0
:10024000D5CF892F8570843061F4809176008160EC
:1002500080937600D092890081DF8111EBCF8AE014
:10026000DDCF9E7F90938900113041F71092880076
:10027000C098C29AB29BFECF00C000C0C09A00C016
:1002800000C000007599CECF84E080938900CACF6A
:10029000B89880EF77DF8883113021F40FB98EEFA3
:1002A00071DFE2CF1FB8FBCF0F931F93CF938C0169
:1002B000C62F7DDF6C2F6460C80179DF6C2F6B7FE8
:1002C000C80175DF87E090E00197F1F7CF911F91AA
:1002D0000F9108950F931F93CF93DF938C01C62F37
:1002E000D42F607F642BE0DF6C2F6295607F6D2BD5
:1002F000C801DF91CF911F910F91D6CF40E060E808
:1003000083E990E0E7CF41E0E5DF81E090E0089508
:100310001F920F920FB60F9211242F933F938F933A
:100320009F93AF93BF9380918B0090918C00A0918D
:100330008D00B0918E0030918A0026E0230F2D377A
:1003400068F129E8230F0396A11DB11D20938A00AF
:1003500080938B0090938C00A0938D00B0938E00BF
:1003600080918F0090919000A0919100B0919200A7
:100370000196A11DB11D80938F0090939000A093D2
:100380009100B0939200BF91AF919F918F913F9157
:100390002F910F900FBE0F901F9018950296A11DE0
:1003A000B11DD4CF83E08ABD82E083BF789489B742
:1003B000826089BF80E48CBD8FEF8DBD94EC90BFCF
:1003C00093E896B9C09AC29ABA9AB89A8FB98AE253
:1003D0008DB980EF8EB91092980080919E00823086
:1003E00018F098E09093980080939B0062E370E08F
:1003F00080E090E061DE60919F0083E990E0D7DECD
:1004000068EE73E080E090E057DE60E383E990E01F
:100410004BDFCFE5D4E0CE010197F1F760E383E94C
:1004200090E042DF2197F1F760E383E990E03CDF61
:1004300080E290E00197F1F760E283E990E034DF39
:1004400060919800606240E083E990E043DF84E0DF
:100450008093990040E06CE083E990E03BDF40E06E
:1004600061E083E990E036DF8EEE91E00197F1F7ED
:1004700080919C00811142DF82E080939A0040E0ED
:1004800066E083E990E026DF40E062E083E990E007
:1004900021DF8EEE91E00197F1F788E080939F00D5
:1004A00060E083E990E083DE29DF4DE050E068E61C
:1004B00070E083E990E02ADEFFCFE3E9F0E0138209
:1004C000128284E690E091838083118687E28483A0
:1004D00084E1828784E0838714860895EE0FFF1FEE
:1004E0000590F491E02D0994F894FFCF00000000EE
:1004F0008301860048656C6C6F2C20776F726C648A
:020500002100D8
:00000001FF
